:020000040800F2
:1000000078230020450100087D07000875070008D7
:10001000790700087D060008F90C000800000000C0
:10002000000000000000000000000000450900087A
:100030001D070008000000007F070008310A0008C3
:100040005F0100085F0100085F0100085F01000810
:100050005F0100085F010008210700085F01000838
:100060005F0100085F0100085F0100085F010008F0
:100070005F0100085F0100085F0100085F010008E0
:100080005F0100085F0100085F0100085F010008D0
:100090005F0100085F0100085F0100085F010008C0
:1000A0005F0100085F0100085F0100085F010008B0
:1000B0005F010008950A00085F0100085F01000861
:1000C0005F0100085F0100085F0100085F01000890
:1000D0005F010008C10B00085F0100085F01000814
:1000E0005F0100085F0100085F0100085F01000870
:1000F0005F0100085F0100085F0100085F01000860
:100100005F0100085F0100085F0100085F0100084F
:100110005F0100085F0100084D0B00085F01000847
:100120005F0100085F0100085F0100085F0100082F
:10013000DFF80CD000F068FA00480047C11400084E
:10014000782300200648804706480047FEE7FEE780
:10015000FEE7FEE7FEE7FEE7FEE7FEE7FEE7FEE777
:10016000350A00083101000810B5002200E0521CD9
:10017000835C8C5CA34201D1002BF8D1D8B2E1B2F0
:10018000401A10BD2DE9FE4F804681EA0300C00FE2
:100190000C46009021F0004123F00045B8EB02002E
:1001A000A94105D24046214690461C460B460246D0
:1001B00023F00040104347D0270DC7F30A00C3F3D4
:1001C0000A510290401A019040286BDAC3F31300E1
:1001D00040F4801B0098924620B10023D2EB030A22
:1001E00063EB0B0B01985946C0F14002504600F0FA
:1001F0007DF906460D4650465946019A00F095F99C
:1002000010EB08006141002487EA115284EAE77389
:100210001A4340D0009A62B3019A012A4FEA07526A
:1002200015DC001B61EB02014FF0004202EA0752AD
:10023000CDE90042001C41F5801132462B4600F00A
:1002400095F903B0BDE8F08F40462146F9E7001B61
:1002500061EB0201001C41F5801300185B4120187E
:10026000A2F5001747EB030140EAD570B6196D41BE
:1002700011E06D084FEA360645EAC0754FEA0752AD
:10028000001B61EB0201001C41F5801149084FEA97
:1002900030000019514132462B4603B0BDE8F04F03
:1002A00000F055B90098012240000023D0EB020273
:1002B00063EBE073009821464FEAE074B8EB00006E
:1002C00061EB0401E9E783F000435BE781F0004163
:1002D00058E72DE9FE4F81EA030404F0004421F0C1
:1002E000004100944FF0000B23F0004350EA01045A
:1002F0005ED052EA03045BD0C3F30A54C1F30A553B
:100300002C44A4F2F3340194A0FB0254C1F3130172
:1003100041F48011C3F3130343F4801301FB02443F
:1003200000FB034E840A970A44EA815447EA835744
:10033000A4FB076802958D0A05FB07854FEA932CFD
:1003400004FB0C542705029D4FEA065847EA16376E
:10035000B5EB08056EEB070C870E920E47EA811786
:1003600042EA8312A7FB0201B6EB0B0164EB000427
:100370002B0D43EA0C335E1844EB1C50DA46514611
:10038000E7FB0201C5F313044FEA0B3343EA1453AE
:100390004FEA0432019C43EA0603A4F10C040294E0
:1003A000009CCDE900B400F0E1F803B0BDE8F08FA7
:1003B00000200146F9E72DE9F04D81EA030404F03D
:1003C000004B21F0004514464FF0000A23F0004195
:1003D00050EA050220D054EA01021DD0C5F30A57A5
:1003E0000246C5F31303C1F31300C1F30A5640F4E8
:1003F000801543F48013A7EB0608101BD64608F2BD
:10040000FD3873EB050002D308F1010801E09218F2
:100410005B41B8F1000F03DA00200146BDE8F08D22
:1004200000204FF48011064684460EE0171B73EB44
:10043000050705D3121B63EB050306434CEA010CC9
:1004400049084FEA300092185B4150EA0107EDD1AC
:1004500052EA030012D082EA040083EA050108434D
:1004600005D0101BAB4106D20122002306E000227A
:100470004FF0004302E06FF0010253101AEB060048
:100480004CEB085110EB0A0041EB0B01BDE8F04DBD
:1004900000F05DB80EB540F2334102910021CDE984
:1004A00000110A460B4600F061F803B000BD70B5BC
:1004B000C1F30A5201F000450024C1F3130140F2D8
:1004C000FF3341F480119A4201DA002070BD40F2FE
:1004D00033439A42A2F2334203DC524200F015F851
:1004E00000E090402C43F1D0404270BD202A04DB54
:1004F000203A00FA02F1002070479140C2F1200337
:1005000020FA03F3194390407047202A04DB203A75
:1005100021FA02F00021704721FA02F3D040C2F123
:1005200020029140084319467047202A06DBCB176A
:10053000203A41FA02F043EAE07306E041FA02F39E
:10054000D040C2F12002914008431946704710B5CF
:10055000141E73F1000408DA401C41F100019218E6
:100560005B411A4301D120F0010010BD2DE9F04D8F
:1005700092469B4611B1B1FA81F202E0B0FA80F2E4
:1005800020329046FFF7B2FF04460F4640EA0A00C9
:1005900041EA0B0153465A46084313D0114653EA29
:1005A000010019D0C8F140025046FFF7AEFF0546E2
:1005B0000E46504659464246FFF798FF084305D07D
:1005C000012004E020463946BDE8F08D00200543B7
:1005D00046EAE0762C4337430A986305E40AA0EB29
:1005E00008000022FD0A44EA47540A3002D50020E0
:1005F0000146E9E7010510196941DDE908450019DF
:100600006941BDE8F04DA2E7064C074D06E0E06801
:1006100040F0010394E8070098471034AC42F6D349
:10062000FFF78AFD681700088817000870B521F0E9
:10063000004303430CD0C1F30A550024D5EB040555
:1006400064EB0403D617AD1AB34102DB0020014668
:1006500070BD201841EB025170BD0EB5C10F80EA8C
:10066000E0700844CA07002140F233438DE80E00D1
:100670000A460B46FFF77AFF03B000BD00BFFEE756
:1006800000F0805111B10349086001E0024948605F
:1006900070470000040402400000024021B10268DB
:1006A00042F00102026004E002684FF6FE731A4055
:1006B0000260704701460020002201F0805313B110
:1006C000054B1A6801E0054B1A6802EA01030BB1F9
:1006D000012000E0002070470004024000000240BA
:1006E00010B50022026847F6F0739A430C6A8B68D3
:1006F00023430C6923434C6923438C692343CC690E
:1007000023434C6A23438C6A23431A430260CB6819
:1007100043600B6883604B68C36010BD7047000086
:1007200010B5012000F012F8012806D100F008F8F9
:1007300002480078C0430149087010BD0000002045
:100740000149086070470000140401400146002080
:100750000022074B1B6803EA0102054B14331B6898
:100760000B4013B10AB1012000E0002070470000E7
:100770000004014000BFFEE700BFFEE7704770477E
:1007800029B1064A52690243044B5A6104E0034A04
:1007900052698243014B5A617047000000100240C9
:1007A0000F48006840F001000D49086008464068A5
:1007B0000C4908400A494860084600680A49084050
:1007C000074908600846006820F480200860084651
:1007D000406820F4FE0048604FF41F0088607047B6
:1007E000001002400000FFF8FFFFF6FE10B50146C2
:1007F0000022002300204A11012A02D1094C23685B
:1008000006E0022A02D1074C236A01E0054C636A24
:1008100001F01F02012494401C400CB1012000E0B3
:10082000002010BD001002400248406800F00C009B
:10083000704700000010024001460020034A506843
:1008400020F0F000084350607047000000100240A4
:100850001149096821F480310F4A11601146096875
:1008600021F480211160B0F5803F03D0B0F5802FD6
:100870000ED106E00849096841F48031064A11604A
:1008800007E00549096841F4A021034A116000E02E
:1008900000BF00BF7047000000100240014600206A
:1008A000034A506820F4E06008435060704700003D
:1008B0000010024001460020034A506820F46050B6
:1008C00040EAC100506070470010024001490866CC
:1008D000704700000000424202460020044B586866
:1008E00020F47C1042EA01031843014B5860704722
:1008F0000010024001460020034A506820F0030027
:1009000008435060704700000010024038B50020D6
:1009100000900024002500BF3120FFF767FF054647
:100920000098401C00900098B0F5A06F01D0002DF9
:10093000F2D03120FFF75AFF08B1012400E0002473
:10094000204638BD704710B500F002F810BD000019
:100950000CB50020019000903348006840F48030CE
:100960003149086000BF3048006800F40030009052
:100970000198401C0190009818B90198B0F5A06F3B
:10098000F1D12948006800F4003010B10120009036
:1009900001E0002000900098012843D1234800681E
:1009A00040F01000214908600846006820F003006C
:1009B00008600846006840F0020008601A48406875
:1009C000194948600846406848600846406840F455
:1009D000806048600846406820F47C104860084603
:1009E000406840F4E81048600846006840F08070B5
:1009F000086000BF0C48006800F000700028F9D0C3
:100A00000948406820F003000749486008464068EC
:100A100040F00200486000BF0348406800F00C004E
:100A20000828F9D10CBD000000100240002002404F
:100A30007047000010B51348006840F001001149EC
:100A4000086008464068104908400E49486008465A
:100A500000680E4908400B4908600846006820F409
:100A6000802008600846406820F4FE0048604FF48B
:100A70001F008860FFF767FF4FF0006004490860BF
:100A800010BD0000001002400000FFF8FFFFF6FE5E
:100A900008ED00E02DE9F0410121224800F078F84E
:100AA00001283DD101211F4800F066F81E4800686A
:100AB000401C1D490860084600686421B0FBF1F441
:100AC0002046FFF7E7FC0546184A194BFFF701FCE3
:100AD00007460022174BFFF76EFC174A03C2164960
:100AE00003C900F05FFD064600224FF08043FFF788
:100AF00062FC04460022114BFFF744FB104A03C27C
:100B00000022104B0E4903C9FFF7E3FB0446FFF731
:100B1000CEFC0D49086008780022114600F02EFD39
:100B2000BDE8F081000400400C0000205045525404
:100B3000FB21094000806640180000200000E03FD3
:100B40001000002000E06F402000002010B50121BF
:100B5000074800F014F8012808D10121044800F0EA
:100B60000BF804480078C0430249087010BD00002B
:100B70000010004000000020CA4302827047024675
:100B80000020138A0B400BB1012000E000207047C9
:100B900030B50246002000230024158A05EA01032F
:100BA000958905EA010413B10CB1012000E0002091
:100BB00030BD81867047018770478187704700008C
:100BC00010B540F22551234800F063F801281DD1EB
:100BD00040F225511F4800F04DF81E4800F083F800
:100BE000044621461B4800F083F81A4800F07BF8C1
:100BF00019491A4A1278885418480078401C174935
:100C0000087000201449154A1278885440F2244193
:100C1000104800F03EF801281BD10E4800F063F8A0
:100C20000FA10D48FFF7A0FA18B9FF200E49087070
:100C300007E00EA10848FFF797FA10B900200A490B
:100C400008700020054908700348002101604160D8
:100C5000018110BD00380140681F002008000020FD
:100C60006F70656E0000000000000020636C6F7301
:100C70006500000010B50022002340F66A14A1426E
:100C800000D100BF0A1201249440A3B2DC430480C7
:100C900010BD70B50246002400230025002040F658
:100CA0006A16B14200D100BFC1F3421501F01F0323
:100CB000012606FA03F3012D02D19689334006E09E
:100CC000022D02D1168A334001E0968A33400C127D
:100CD000012606FA04F41688344013B10CB1012041
:100CE00000E0002070BD01468888C0F3080070470E
:100CF000C1F308028280704700BFFEE7490050EA56
:100D0000C12018BF04204A0D18BF40F0010040F276
:100D1000FF72B2EB515F08BF40F00200012808BF2C
:100D2000052070472DE9F74F144694B00021C4E91F
:100D300002111599079121F00045C9498D4206DC41
:100D40001599C4E9000117B00020BDE8F08FC5492E
:100D5000DFF814A3A9423CDD0799C44E0029C44F13
:100D6000C44A1599534619DDFFF7ADFA554506D02B
:100D7000C14AC24BFFF7A7FAC4E900010AE04FF0ED
:100D8000D352BE4BFFF79FFA32463B46FFF79BFA22
:100D9000C4E9000117B00120BDE8F08FFFF7F2F9B8
:100DA000554506D0B44AB54BFFF7ECF9C4E900014C
:100DB0000AE04FF0D352B14BFFF7E4F932463B461D
:100DC000FFF7E0F9C4E9000117B04FF0FF30BDE8CC
:100DD000F08FAB49A942159978DB21F00041834699
:100DE0008846A84AA84BFFF774FA0022A74BFFF7E2
:100DF000C9F9FFF75CFB0990FFF72FFC06460F4689
:100E00009C4A5346FFF765FA43465A46FFF75EFA97
:100E100080468A46984A994B30463946FFF759FA38
:100E20002A0D01250B9242465346FFF74FFA032D38
:100E3000C4E9000139D00B98C1F30A51401A05EBFF
:100E400045111139814230DA9148C346784400EBAC
:100E50000510CDF80CA00C90D0E90023304639469F
:100E6000FFF737FA02460B4604910690584603995D
:100E7000FFF729FA80468A4602460B4658460399F0
:100E8000FFF721FA049B069AFFF71DFA83460C9898
:100E900003913946D0E902233046FFF71AFA5A4641
:100EA000039BFFF710FA6D1CBDE707980028A2BF4F
:100EB000099817B0BDE8F08F616881F0004161606A
:100EC000099817B04042BDE8F08FFFE784461598B7
:100ED000C1F31301C0F30A50A0F2F5304FEA6018D5
:100EE00000F01F06C6F12000139000200690079026
:100EF00041F4801E05206D4676B1664A08EB00017C
:100F00007A4452F8213002EB8101B3404A681399C8
:100F100022FA01F1194305E05F4908EB0002794428
:100F200051F82210A1FB0E27A1FB0C131A449A4280
:100F300034BF0123002303EB070A05EB8003D3E949
:100F400001B70F448F4234BF0121002193448B44E9
:100F500011B1934502D903E0934501D2012100E08C
:100F60000021C3E901B7514445F82010011EA0F14A
:100F70000100C1DC0298059F00F10050800F129023
:100F80000298DDE903568000FFF767FB8346284699
:100F90000D91FFF77FFA6FF01D02FFF747FBCDE9D8
:100FA0000E013046FFF776FA6FF03D02FFF73EFB89
:100FB00080468A463846FFF76DFA6FF05D02FFF70C
:100FC00035FB0746424653461191FFF7DBF8DDE952
:100FD0000E23FFF7D7F85A460D9BFFF7D3F80025ED
:100FE0000E465A4628460D9BFFF76DF9DDE90E23A4
:100FF000FFF769F942465346FFF765F93A46119BF8
:10100000FFF764F9DFF898A0244A5346FFF761F927
:1010100007468846234A244B31462846FFF759F9AC
:101020003A464346FFF7AEF8074688464FF0A842D7
:10103000534631462846FFF74CF93A464346FFF7F8
:10104000A1F8159A12F0004F04D0129A81F00041D5
:1010500052421292C4E90001129817B0BDE8F08F15
:10106000FB21E93F7CD90240FB21F93F7370032E3D
:101070008A19A33B000040543163621A61B4D03D29
:10108000FB21394183C8C96D305FE43F0000E03F78
:1010900028080000A407000086070000182D44540B
:1010A000FB21F93D3326A611460B113C2DE9FF4DDE
:1010B00021F0004807460C46B8F1795F08DAFFF7DF
:1010C000F6F9002801BF0020324904B0BDE8F08DD8
:1010D0003A46234610461946FFF7FBF805460246F6
:1010E0002D480E460B460621784400F05DF82A464E
:1010F0003346FFF7EEF8DDE9022382468B46384699
:101100002146FFF7E6F804460F4652465B4628465E
:101110003146FFF7DEF822463B46FFF7D4F8074694
:101120008A464FF0FF3228463146FFF77FFA1B4AC6
:1011300090450ADA3A465346FFF7C5F804B0002254
:10114000BDE8F04D134BFFF7C1B8154A4245A8BFA3
:10115000A8F500154FF00004B8BF124D22462B46EB
:10116000FFF7B1F80646884622462B46002009497B
:10117000FFF7A9F804460D463A4653463046414625
:10118000FFF7A1F804B022462B46BDE8F04DFFF76B
:101190009DB800000000F03F5C0500003333D33FF2
:1011A0000000E93F0000D23F2DE9F0414F1E00EB67
:1011B000C7010446D1E9000115461E4637F0060274
:1011C0000DD02A463346FFF784F87F1E04EBC70391
:1011D000D3E90023FEF7D6FF37F00602F1D1022F44
:1011E00025D0042F13D0062F18BFBDE8F0812A4662
:1011F0003346FFF76EF8D4E90A23FEF7C3FF2A4609
:101200003346FFF766F8D4E90823FEF7BBFF2A460A
:101210003346FFF75EF8D4E90623FEF7B3FF2A460C
:101220003346FFF756F8D4E90423FEF7ABFF2A460E
:101230003346FFF74EF8D4E90223FEF7A3FF2A4610
:101240003346FFF746F8D4E90023BDE8F041FEF746
:1012500099BF00002DE9FF4D054621F0004084B004
:101260000C46B0F1795F0BDA2846FFF747FD0428FA
:1012700008BF00F06FF8284608B02146BDE8F08DA1
:101280002A460B461046FFF724F806460F462A4624
:101290002346FFF71EF8804626488A4632463B46DC
:1012A00005217844FFF780FF83461098029160B3D0
:1012B000214A224B40465146FFF70BF8CDE9000189
:1012C0005A4640465146029BFFF703F8824688463D
:1012D000DDE906014FF0FF32FFF7A8F95246434619
:1012E000FEF7F1FF32463B46FEF7F3FFDDE906234A
:1012F000FEF7E9FFDDE90023FEF7E5FF08B02A4627
:101300002346BDE8F04DFEF7E1BF0B465A46304696
:101310003946FEF7DEFF084A084BFEF733FF424628
:101320005346FEF7D6FF08B02A462346BDE8F04DE7
:10133000FEF728BF9A040000495555555555C5BFBD
:101340000122FFF773B90022134610461146FFF73A
:1013500032B80000024A00201107FFF767B9000009
:1013600001FDFFFF02E008C8121F08C1002AFAD1E0
:1013700070477047002001E001C1121F002AFBD115
:1013800070470000014908607047000024000020F9
:1013900070B58CB006460C46154601210846FFF78D
:1013A000EFF90196029400200390049540200590E7
:1013B000802006908000079080000890002009900F
:1013C0004FF480500A9080000B9001A90448FFF769
:1013D00087F901210248FFF761F90CB070BD0000E8
:1013E0001C00024030B503460C46002108E053F8CB
:1013F000210054F82150A84201D0002030BD491CE2
:101400009142F4D30120F9E71048806940F01000C0
:101410000E4988610E48006820F07F400C49086042
:101420000846006840F0085008600846406820F010
:101430000F0048600846406840F0020048600846D7
:10144000C06840F4E070C8607047000000100240BF
:10145000001001401949C96841F4E071174AD16090
:1014600030B101280BD0022810D003281CD114E081
:101470001249C96821F48071104AD1601BE00F49FC
:10148000C96821F080010D4AD16014E00B49C96898
:1014900021F04001094AD1600DE00849C96821F4F2
:1014A000E071064AD16006E00449C96841F4E07180
:1014B000024AD16000BF00BF704700000010014029
:1014C000002404E0601C154941F82400641CB4F5B4
:1014D0007A7FF7DBFFF764F900F024F8FFF794FF59
:1014E0004FF47A720E490D48FFF752FF0020FFF7C4
:1014F000B1FF00BF2020FFF7DDF80128FAD120203E
:10150000FFF7BEF84FF47A7205490448FFF76AFF07
:1015100010B10120FFF79EFF00BFFEE7280000206A
:10152000C80F002010B54FF48030FFF791F900BFCD
:10153000FFF7ECF90128FBD14FF4E0110004FFF7AD
:10154000CBF90120FFF7C2F900BF3920FFF74EF9B0
:101550000128FAD10020FFF76FF94FF48060FFF700
:101560009DF90020FFF7A6F90220FFF7C3F900BF9D
:10157000FFF75AF90828FBD110BD000070B50446EA
:101580000E46154629460648FFF713FB3146044828
:10159000FFF711FB21460248FFF70FFB70BD00006B
:1015A0000004004000B5254B21F0004287B09A426C
:1015B00003DC0022134600922BE0214B9A4208D113
:1015C00040B94FF00100FFF7DDFEFFF7BCFE07B0AA
:1015D00000BD03DBFFF7B4FE07B000BD02AAFFF7B2
:1015E000A1FB10F003014FF001000DD0012914D030
:1015F00002291AD00DF1080C9CE80F00FFF756FDE8
:1016000007B081F0004100BD0DF1080C00909CE88E
:101610000F00FFF71FFE07B000BD0DF1080C9CE89E
:101620000F00FFF743FD07B000BD0DF1080C00905F
:101630009CE80F00FFF70EFEE2E70000FB21E93F08
:101640000000F07F000000004C5555555555A53F52
:101650007751C1166CC156BF9015CB19A001FA3E47
:10166000AD529C804F7E92BEC4B1B4BD9EEE213E71
:10167000D43888BEE9FAA8BD00004054FB21F93FE8
:101680003163621A61B4D03D0000601A61B4D03D8C
:101690007370032E8A19A33B0000002E8A19A33B06
:1016A000C14920259A837B3900000000000000001A
:1016B0006E83F9A22915444ED15727FCC0DD34F5BD
:1016C000999562DB4190433CAB6351FE61C5BBDE43
:1016D0003A6E24B7E0D24D42EA2E49061C92D10957
:1016E0001CEB1DFE3EA729B1F53582E88444BB2ED4
:1016F00026709CE9417E5FB439D69139F439538321
:101700008B5F849C3B28F9BDFF97F81F0F9805DE7F
:101710008B112FEF1F6D0A5ACF7E366DB709CB277D
:10172000663F464F2DEA5F9EC7BA27757BF1E5EB12
:10173000F739073DEA92528AB15FFB6B085D8D1F56
:10174000A6F810111111813FD561C119A0012ABF5E
:101750007DFEB157E31DC73EEB9C2B8AE6E55ABEE2
:101760007CD5CF5A3AD9E53D881700080000002003
:101770002800000064130008B017000828000020AB
:101780005023000074130008FF0000000000000058
:101790000000000000000000000000000000000049
:1017A0000000000000000000000000000000000039
:0400000508000131BD
:00000001FF
