:020000040800F2
:10000000904B0020650200084B04000843040008E0
:10001000470400081F030008B505000800000000A1
:10002000000000000000000000000000CD010008FA
:10003000230300080000000011020008850F0008DB
:100040007F0200087F0200087F0200087F0200088C
:100050007F0200087F0200087F0200087F0200087C
:100060007F0200087F0200087F0200087F0200086C
:100070007F0200087F0200087F0200087F0200085C
:100080007F0200087F0200087F0200087F0200084C
:100090007F0200087F0200087F0200087F0200083C
:1000A0007F0200087F0200087F0200087F0200082C
:1000B0007F0200087F0200087F0200087F0200081C
:1000C0007F0200087F0200087F0200087F0200080C
:1000D0007F0200087F0200087F0200087F020008FC
:1000E0007F0200087F0200087F0200087F020008EC
:1000F0007F0200087F0200087F0200087F020008DC
:100100007F0200087F0200087F0200087F020008CB
:100110007F0200087F0200087F0200087F020008BB
:100120007F0200087F0200087F0200087F020008AB
:1001300000F002F800F03AF80AA090E8000C8244BF
:100140008344AAF10107DA4501D100F02FF8AFF29C
:10015000090EBAE80F0013F0010F18BFFB1A43F0A5
:1001600001031847B8100000D8100000103A24BF4F
:1001700078C878C1FAD8520724BF30C830C144BF0C
:1001800004680C607047000000230024002500264E
:10019000103A28BF78C1FBD8520728BF30C148BFEA
:1001A0000B6070471FB51FBD10B510BD00F07DF886
:1001B0001146FFF7F7FF00F0AFFA00F09BF803B429
:1001C000FFF7F2FF03BC00F0A3F80000224B196810
:1001D0000868B0E8F00F80F30988BFF36F8F4FF025
:1001E000000080F311884EF00D0E704700000000F3
:1001F00006480068006880F3088862B661B6BFF3FD
:100200004F8FBFF36F8F00DF00BF00BF08ED00E02E
:10021000EFF30980BFF36F8F0F4B1A6820E9F00FDF
:10022000106008B54FF0BF0080F31188BFF34F8F07
:10023000BFF36F8F00F05CFE4FF0000080F3118879
:10024000BDE8084019680868B0E8F00F80F3098835
:10025000BFF36F8F704700BF0C000020EFF30580E5
:10026000704700000948804709480047FEE7FEE75D
:10027000FEE7FEE7FEE7FEE7FEE7FEE7FEE7FEE756
:1002800004480549054A064B70470000550500081B
:100290003101000890450020904B0020904700203D
:1002A00090470020704770477047754600F02CF863
:1002B000AE4605006946534620F00700854618B053
:1002C00020B5FFF7DDFFBDE820404FF000064FF0FE
:1002D00000074FF000084FF0000B21F00701AC467B
:1002E000ACE8C009ACE8C009ACE8C009ACE8C0099A
:1002F0008D46704710B50446AFF300802046BDE838
:100300001040FFF75CBF0000004870472C450020FC
:1003100001491820ABBEFEE726000200704700BF6F
:10032000FEE770472DE9F041024600250026002037
:1003300000230024002791F803C00CF00F0591F86A
:1003400003C00CF0100CBCF1000F03D091F802C0F8
:100350004CEA050591F800C0BCF1000F31D01468DB
:1003600000202BE04FF0010C0CFA00F3B1F800C0B4
:100370000CEA03069E4220D183004FF00F0C0CFACA
:1003800003F7BC4305FA03FC4CEA040491F803C0EC
:10039000BCF1280F06D14FF0010C0CFA00FCC2F89A
:1003A00014C00AE091F803C0BCF1480F05D14FF02A
:1003B000010C0CFA00FCC2F810C0401C0828D1D374
:1003C0001460B1F800C0BCF1FF0F34DD54680020A8
:1003D0002EE000F1080C4FF0010808FA0CF3B1F818
:1003E00000C00CEA03069E4221D183004FF00F0C9F
:1003F0000CFA03F7BC4305FA03FC4CEA040491F839
:1004000003C0BCF1280F05D100F1080C08FA0CF864
:10041000C2F8148091F803C0BCF1480F07D100F175
:10042000080C4FF0010808FA0CF8C2F81080401CC4
:100430000828CED35460BDE8F08141617047016166
:10044000704700BFFEE700BFFEE7704729B1064ACC
:1004500092690243044B9A6104E0034A9269824321
:10046000014B9A61704700000010024010B500F087
:1004700001F810BD0CB500200190009033480068D1
:1004800040F480303149086000BF3048006800F413
:10049000003000900198401C0190009818B9019814
:1004A000B0F5A06FF1D12948006800F4003010B118
:1004B0000120009001E0002000900098012843D125
:1004C0002348006840F01000214908600846006891
:1004D00020F0030008600846006840F00200086051
:1004E0001A4840681949486008464068486008460C
:1004F000406840F4806048600846406820F47C1002
:1005000048600846406840F4E810486008460068C3
:1005100040F08070086000BF0C48006800F0007078
:100520000028F9D00948406820F0030007494860D6
:100530000846406840F00200486000BF0348406839
:1005400000F00C000828F9D10CBD0000001002409A
:100550000020024010B51348006840F00100114926
:10056000086008464068104908400E49486008463F
:1005700000680E4908400B4908600846006820F4EE
:10058000802008600846406820F4FE0048604FF470
:100590001F008860FFF76AFF4FF0006004490860A1
:1005A00010BD0000001002400000FFF8FFFFF6FE43
:1005B00008ED00E000BFFEE708B501211020FFF7BD
:1005C00045FF10208DF803004001ADF80000032026
:1005D0008DF8020069460548FFF7A4FE00BF4FF4FE
:1005E00000710248FFF72BFF00BF08BD001001405B
:1005F00014E000BF4FF400710948FFF71EFF00BF71
:100600000A2000F0BBFB00BF4FF400710448FFF765
:1006100016FF00BF4FF47A7000F0B0FBE9E700006E
:10062000001001401CB50548032100233222CDE90A
:10063000001003A1054800F0BFFC1CBD080000200D
:100640006C65642067207461736B0000F10500081D
:100650001CB50548022100233222CDE9001003A178
:10066000054800F0A9FC1CBD040000206C65642056
:1006700072207461736B0000E50600081CB5054824
:10068000012100238022CDE9001003A1054800F0DC
:1006900093FC1CBD000000207374617274207461AF
:1006A000736B0000250C000808B501211020FFF72E
:1006B000CDFE10208DF803004FF4E070ADF800007F
:1006C00003208DF8020069460548FFF72BFE00BFA6
:1006D0004FF4E0710248FFF7B2FE00BF08BD000012
:1006E0000010014014E000BF4FF480710948FFF78B
:1006F000A4FE00BFC82000F041FB00BF4FF4807192
:100700000448FFF79CFE00BF4FF4FA7000F036FB80
:10071000E9E7000000100140FFF7C6FFFFF74CFFBC
:10072000FFF7ACFF00F0AAFB00BFFEE72DE9F041A8
:1007300005460E461C4807681C480068001D00F06E
:1007400083FA50B91948006890F82C1001208840AD
:1007500017490968814316480160681C38B936B1E9
:1007600012480168091D134800F0ACFA1AE07C1920
:100770000E4800684460BC4207D20C480168091D5D
:100780000D48006800F084FA0CE008480168091D73
:100790000A48006800F07CFA09480068844201D2E7
:1007A00007480460BDE8F081200000200C00002014
:1007B0002400002018010020140000201000002058
:1007C0003C00002010B5044600F088FA2348006879
:1007D000401C224908602248006840B92048046053
:1007E0000846006801280DD100F014F90AE01D4800
:1007F000006838B91A480068C06AE16A884201D8BE
:100800001748046018480068401C1749086094F8AD
:100810002C100120884015490968084313490860D5
:10082000E16A01EB8101124A02EB8100211D00F017
:1008300049FA00F065FA0B48006868B1084800689A
:10084000C06AE16A884207D24FF0805009490860C7
:10085000BFF34F8FBFF36F8F10BD00001C0000204F
:100860000C00002028000020380000202400002078
:100870006400002004ED00E070B523E000F030FBE0
:100880001348006808B9012000E00020054600F088
:1008900051FCBDB900F022FA0D48C068C468201DA3
:1008A00000F0D2F90B480068401E0A4908600A4867
:1008B0000068401E0849086000F022FA204600F057
:1008C0000DF800BF044800680028D7D170BD0000B3
:1008D000040100201C0000201800002010B5044670
:1008E000206B00F01DFA204600F01AFA10BD00003F
:1008F00030B54FF48843174800F007042CB1C01DF1
:1009000020F00700134C041B1B1B0246124C2260F4
:100910000024114D6C60D018083820F007000F4CEF
:10092000206000240D4D2D686C600C4D2D682C60EE
:100930001146441A4C60094C24680C60084D4C6800
:100940002C60084D4C682C604FF00044064D2C6024
:1009500030BD00002C010020480000205000002085
:1009600058000020540000205C00002000BFFFF76A
:1009700083FF064800680128F9D94FF080500449E8
:100980000860BFF34F8FBFF36F8FF0E76400002064
:1009900004ED00E02DE9FF5F80460E469146DDE95B
:1009A0000E7A109CA9F10100216B01EB800B2BF05A
:1009B000070B002507E0715D04F134004155705DBF
:1009C00000B902E06D1C102DF5D300BF00214320BB
:1009D0000155052F00D30427E762201D00F055F9CB
:1009E00004F1180000F051F92461C7F10500A0617D
:1009F00064620020606484F8480041465846039AC7
:100A000000F0FEF82060BAF1000F01D0CAF80040F3
:100A1000BDE8FF9F10B5002407E004EB84010F4AF6
:100A200002EB810000F024F9641C052CF5D30C487E
:100A300000F01EF90B4800F01BF90B4800F018F904
:100A40000A4800F015F90A4800F012F9044809496B
:100A5000086004480849086010BD000064000020D8
:100A6000C8000020DC000020F0000020040100206D
:100A700018010020100000201400002010B50146CD
:100A8000164800E0006803688B42FBD302464368C7
:100A900013448B4204D143684C68234443600146AD
:100AA0000A464B6813440468A34211D10C4C0368F6
:100AB0002468A34208D04B680468646823444B60F0
:100AC00003681B680B6005E0054B1B680B6001E0C9
:100AD00003680B60884200D0016010BD4800002010
:100AE000500000200A490968096809B9012100E09D
:100AF000002121B14FF0FF31064A116006E00449A0
:100B00000968C968C868034A4168116070470000F5
:100B1000100000203C00002000BFBF2080F311889F
:100B2000BFF34F8FBFF36F8F00BF00BFFEE7000022
:100B30002DE9F04105464FF0000800F0D1F92B48AF
:100B4000006808B9FFF7D4FE29480068284000284B
:100B500047D145B1083505F0070020B105F0070081
:100B6000C0F108000544002D3BD0224800688542B2
:100B700037D8214E3046046801E026462468606874
:100B8000A84202D220680028F7D1184800688442A1
:100B900027D0306800F10808206830606068401B8A
:100BA000102807D967196068401B7860656038466F
:100BB000FFF764FF0F4960680968081A0D4908606B
:100BC000084600680D490968884203D20948006850
:100BD0000A490860064960680968084360600020A7
:100BE000206000F0A7FA4046BDE8F08150000020E8
:100BF0005C00002054000020480000205800002025
:100C0000001F4FF080730360001F21F00103036099
:100C1000001F034B03601438026020387047000047
:100C2000190B000810B5044600F058F8FFF710FD46
:100C3000FFF7F8FC0348006800F0BAF800F060F82D
:100C400010BD00000000002001460A69D1E9013012
:100C50009860D1E9010358605068884201D18868E2
:100C60005060002008611068401E106010687047D6
:100C700000F1080141604FF0FF31816000F108018F
:100C8000C16001610021016070470021016170476E
:100C900010B502460B685C1C0CB9106907E002F144
:100CA000080000E04068446824689C42FAD944681F
:100CB0004C604C68A160886041600A611468641CE3
:100CC000146010BD42684A6093688B6093685960F5
:100CD0009160086103685B1C0360704700BFBF2020
:100CE00080F31188BFF34F8FBFF36F8F00BF0348AE
:100CF0000068401C01490860704700006000002047
:100D000006480068401E054908600846006820B98A
:100D1000002080F3118800BF00BF704760000020F2
:100D200070B506463546D6B1083D2C460C4960687C
:100D30000968084098B1206888B90949606809685D
:100D40008843606000F0CCF8064960680968084490
:100D5000044908602046FFF791FE00F0EBF970BDF2
:100D60005C0000205400002003484FF0E02148615F
:100D700007200861704700003F19010070B5044664
:100D8000002544B100F0ACF800212046FFF7CEFC6E
:100D900000F0D0F905463DB94FF080500349086096
:100DA000BFF34F8FBFF36F8F70BD000004ED00E005
:100DB00070B50546FFF792FF15B92748006800E0B7
:100DC00028460446201DFFF73FFF78B9E06A00EB94
:100DD0008000224951F8200040B994F82C100120DD
:100DE00088401F49096881431D480160A06A18B105
:100DF00004F11800FFF728FF1A480068401C194941
:100E0000086015480068844209D1211D1648FFF783
:100E100059FF16480068401C1449086009E014484E
:100E20000068401E124908602046FFF757FDFFF793
:100E300059FEFFF765FF0F48006858B10648006883
:100E4000844207D14FF080500B490860BFF34F8FA9
:100E5000BFF36F8F70BD00000C0000206400002005
:100E60002400002038000020040100201800002089
:100E70001C0000202800002004ED00E01CB51148F3
:100E800000210B468022CDE900100FA1104800F090
:100E900093F80446012C14D100BFBF2080F31188C1
:100EA000BFF34F8FBFF36F8F00BF4FF0FF30094983
:100EB000086001200849086000200849086000F027
:100EC00047F81CBD4000002049444C45000000008C
:100ED0006D0900083C0000202800002020000020B0
:100EE00002480068401C0149086070474400002027
:100EF0001248006818B10120114908601DE0002067
:100F00000F4908600F480068B0FA80F0C0F11F0177
:100F100001EB81020C4B03EB820042685268426095
:100F200000F108024368934202D14268526842606D
:100F30004268D268054B1A6000BF70474400002029
:100F40003000002024000020640000200C0000205D
:100F500010B50A48006840F47F0008490860084658
:100F6000006840F07F400860FFF7FEFE0020044963
:100F70000860FFF73DF9002010BD000020ED00E003
:100F80006000002010B500BFBF2080F31188BFF3C0
:100F90004F8FBFF36F8F00BF00F03EF818B14FF0D6
:100FA00080500449086000BF002080F3118800BF12
:100FB00010BD000004ED00E02DE9FF4F85B0804634
:100FC00089461746DDE912ABB800FFF7B1FD0646CA
:100FD00056B14C20FFF7ACFD04460CB1266304E08B
:100FE0003046FFF79DFE00E000247CB10020CDE9F3
:100FF00000ABCDE902403A4649464046089BFFF720
:10100000C9FC2046FFF7DEFB012501E04FF0FF356C
:10101000284609B0BDE8F08F2DE9F04100273A4895
:101020000068002863D139480068451C37480560CE
:101030008DB93748D0F800803648006834490860D8
:101040003448C0F8008034480068401C32490860C9
:10105000FFF748FD00BF3148006885423BD300BF21
:101060002B480068006808B9012000E0002020B18A
:101070004FF0FF30294908602CE025480068C0681F
:10108000C4686668B54202D22448066022E0201D8A
:10109000FFF7DAFDA06A18B104F11800FFF7D4FDDC
:1010A00094F82C10012088401D49096808431C4908
:1010B0000860E16A01EB81011A4A02EB8100211DFF
:1010C000FFF700FE1849E06A0968C96A8842C7D379
:1010D0000127C5E700BF14480068C06A00EB800024
:1010E000104951F82000012800D9012704E00F48D9
:1010F0000068401C0D4908600D48006800B10127D8
:101100003846BDE8F08100004400002020000020A7
:101110001000002014000020340000203C000020BB
:1011200024000020640000200C0000202C0000207F
:101130003000002070B500240026FFF7CFFD2E48B8
:101140000068401E2C4908600846006800284FD1FE
:101150002A48006800284BD024E02948C068C468A9
:1011600004F11800FFF770FD201DFFF76DFD94F8E6
:101170002C10012088402349096808432149086050
:10118000E16A01EB8101204A02EB8100211DFFF79A
:1011900099FD1E49E06A0968C96A884202D30120A4
:1011A0001B4908601648006808B9012000E00020CB
:1011B0000028D2D00CB1FFF795FC1648056865B140
:1011C00000BFFFF729FF10B10120114908606D1E13
:1011D000002DF6D100200F4908600D48006838B195
:1011E000012630070C490860BFF34F8FBFF36F8FA4
:1011F000FFF786FD304670BD440000201C00002033
:10120000F000002024000020640000200C000020DA
:10121000300000202C00002004ED00E03C1200080B
:1012200000000020640000006C010008A01200080B
:10123000640000202C4B0000880100080000000022
:10124000000000000000000000000000000000009E
:10125000000000000000000000000000000000008E
:10126000000000000000000000000000000000007E
:10127000000000000000000000000000000000006E
:10128000000000000000000000000000000000005E
:10129000000000000000000000000000AAAAAAAAA6
:0400000508000131BD
:00000001FF
